{
	"data": {
		"bytecode": {
			"linkReferences": {},
			"object": "608060405234801561001057600080fd5b506105c8806100206000396000f3fe608060405234801561001057600080fd5b50600436106100415760003560e01c8063017e498114610046578063860c6f5614610064578063eec4c95f14610094575b600080fd5b61004e6100b0565b60405161005b91906103d4565b60405180910390f35b61007e60048036038101906100799190610306565b61016c565b60405161008b91906103d4565b60405180910390f35b6100ae60048036038101906100a99190610333565b6101c2565b005b600080600080600160ff1681526020019081526020016000205490506000806000600260ff1681526020019081526020016000205490506000806000600360ff1681526020019081526020016000205490508183111580156101125750808311155b156101235760019350505050610169565b8282111580156101335750808211155b156101445760029350505050610169565b8281111580156101545750818111155b156101655760039350505050610169565b5050505b90565b6000600160008373ffffffffffffffffffffffffffffffffffffffff1673ffffffffffffffffffffffffffffffffffffffff16815260200190815260200160002060009054906101000a900460ff169050919050565b60018160ff16101580156101da575060038160ff1611155b610219576040517f08c379a0000000000000000000000000000000000000000000000000000000008152600401610210906103b4565b60405180910390fd5b80600160008473ffffffffffffffffffffffffffffffffffffffff1673ffffffffffffffffffffffffffffffffffffffff16815260200190815260200160002060006101000a81548160ff021916908360ff1602179055506000808260ff1660ff168152602001908152602001600020600081548092919061029a90610472565b91905055507f20681fe6bacfd367b61633fbc5978deb3ec92fde63194f4234bfc2797ef9686781836040516102d09291906103ef565b60405180910390a15050565b6000813590506102eb81610564565b92915050565b6000813590506103008161057b565b92915050565b60006020828403121561031c5761031b6104ea565b5b600061032a848285016102dc565b91505092915050565b6000806040838503121561034a576103496104ea565b5b6000610358858286016102dc565b9250506020610369858286016102f1565b9150509250929050565b61037c81610429565b82525050565b600061038f605f83610418565b915061039a826104ef565b606082019050919050565b6103ae81610465565b82525050565b600060208201905081810360008301526103cd81610382565b9050919050565b60006020820190506103e960008301846103a5565b92915050565b600060408201905061040460008301856103a5565b6104116020830184610373565b9392505050565b600082825260208201905092915050565b60006104348261043b565b9050919050565b600073ffffffffffffffffffffffffffffffffffffffff82169050919050565b6000819050919050565b600060ff82169050919050565b600061047d8261045b565b91507fffffffffffffffffffffffffffffffffffffffffffffffffffffffffffffffff8214156104b0576104af6104bb565b5b600182019050919050565b7f4e487b7100000000000000000000000000000000000000000000000000000000600052601160045260246000fd5b600080fd5b7f496c206e756d65726f2064656c6c6120736861726420646f766520652720737460008201527f61746f206465706c6f7961746f206c6f20736d61727420636f6e74726163742060208201527f646576652065737365726520636f6d707265736f207472612031206520332e00604082015250565b61056d81610429565b811461057857600080fd5b50565b61058481610465565b811461058f57600080fd5b5056fea2646970667358221220d51c760832e745471d9ddae1c0cd2676806df34422414da2a45605385e0913b064736f6c63430008060033",
			"opcodes": "PUSH1 0x80 PUSH1 0x40 MSTORE CALLVALUE DUP1 ISZERO PUSH2 0x10 JUMPI PUSH1 0x0 DUP1 REVERT JUMPDEST POP PUSH2 0x5C8 DUP1 PUSH2 0x20 PUSH1 0x0 CODECOPY PUSH1 0x0 RETURN INVALID PUSH1 0x80 PUSH1 0x40 MSTORE CALLVALUE DUP1 ISZERO PUSH2 0x10 JUMPI PUSH1 0x0 DUP1 REVERT JUMPDEST POP PUSH1 0x4 CALLDATASIZE LT PUSH2 0x41 JUMPI PUSH1 0x0 CALLDATALOAD PUSH1 0xE0 SHR DUP1 PUSH4 0x17E4981 EQ PUSH2 0x46 JUMPI DUP1 PUSH4 0x860C6F56 EQ PUSH2 0x64 JUMPI DUP1 PUSH4 0xEEC4C95F EQ PUSH2 0x94 JUMPI JUMPDEST PUSH1 0x0 DUP1 REVERT JUMPDEST PUSH2 0x4E PUSH2 0xB0 JUMP JUMPDEST PUSH1 0x40 MLOAD PUSH2 0x5B SWAP2 SWAP1 PUSH2 0x3D4 JUMP JUMPDEST PUSH1 0x40 MLOAD DUP1 SWAP2 SUB SWAP1 RETURN JUMPDEST PUSH2 0x7E PUSH1 0x4 DUP1 CALLDATASIZE SUB DUP2 ADD SWAP1 PUSH2 0x79 SWAP2 SWAP1 PUSH2 0x306 JUMP JUMPDEST PUSH2 0x16C JUMP JUMPDEST PUSH1 0x40 MLOAD PUSH2 0x8B SWAP2 SWAP1 PUSH2 0x3D4 JUMP JUMPDEST PUSH1 0x40 MLOAD DUP1 SWAP2 SUB SWAP1 RETURN JUMPDEST PUSH2 0xAE PUSH1 0x4 DUP1 CALLDATASIZE SUB DUP2 ADD SWAP1 PUSH2 0xA9 SWAP2 SWAP1 PUSH2 0x333 JUMP JUMPDEST PUSH2 0x1C2 JUMP JUMPDEST STOP JUMPDEST PUSH1 0x0 DUP1 PUSH1 0x0 DUP1 PUSH1 0x1 PUSH1 0xFF AND DUP2 MSTORE PUSH1 0x20 ADD SWAP1 DUP2 MSTORE PUSH1 0x20 ADD PUSH1 0x0 KECCAK256 SLOAD SWAP1 POP PUSH1 0x0 DUP1 PUSH1 0x0 PUSH1 0x2 PUSH1 0xFF AND DUP2 MSTORE PUSH1 0x20 ADD SWAP1 DUP2 MSTORE PUSH1 0x20 ADD PUSH1 0x0 KECCAK256 SLOAD SWAP1 POP PUSH1 0x0 DUP1 PUSH1 0x0 PUSH1 0x3 PUSH1 0xFF AND DUP2 MSTORE PUSH1 0x20 ADD SWAP1 DUP2 MSTORE PUSH1 0x20 ADD PUSH1 0x0 KECCAK256 SLOAD SWAP1 POP DUP2 DUP4 GT ISZERO DUP1 ISZERO PUSH2 0x112 JUMPI POP DUP1 DUP4 GT ISZERO JUMPDEST ISZERO PUSH2 0x123 JUMPI PUSH1 0x1 SWAP4 POP POP POP POP PUSH2 0x169 JUMP JUMPDEST DUP3 DUP3 GT ISZERO DUP1 ISZERO PUSH2 0x133 JUMPI POP DUP1 DUP3 GT ISZERO JUMPDEST ISZERO PUSH2 0x144 JUMPI PUSH1 0x2 SWAP4 POP POP POP POP PUSH2 0x169 JUMP JUMPDEST DUP3 DUP2 GT ISZERO DUP1 ISZERO PUSH2 0x154 JUMPI POP DUP2 DUP2 GT ISZERO JUMPDEST ISZERO PUSH2 0x165 JUMPI PUSH1 0x3 SWAP4 POP POP POP POP PUSH2 0x169 JUMP JUMPDEST POP POP POP JUMPDEST SWAP1 JUMP JUMPDEST PUSH1 0x0 PUSH1 0x1 PUSH1 0x0 DUP4 PUSH20 0xFFFFFFFFFFFFFFFFFFFFFFFFFFFFFFFFFFFFFFFF AND PUSH20 0xFFFFFFFFFFFFFFFFFFFFFFFFFFFFFFFFFFFFFFFF AND DUP2 MSTORE PUSH1 0x20 ADD SWAP1 DUP2 MSTORE PUSH1 0x20 ADD PUSH1 0x0 KECCAK256 PUSH1 0x0 SWAP1 SLOAD SWAP1 PUSH2 0x100 EXP SWAP1 DIV PUSH1 0xFF AND SWAP1 POP SWAP2 SWAP1 POP JUMP JUMPDEST PUSH1 0x1 DUP2 PUSH1 0xFF AND LT ISZERO DUP1 ISZERO PUSH2 0x1DA JUMPI POP PUSH1 0x3 DUP2 PUSH1 0xFF AND GT ISZERO JUMPDEST PUSH2 0x219 JUMPI PUSH1 0x40 MLOAD PUSH32 0x8C379A000000000000000000000000000000000000000000000000000000000 DUP2 MSTORE PUSH1 0x4 ADD PUSH2 0x210 SWAP1 PUSH2 0x3B4 JUMP JUMPDEST PUSH1 0x40 MLOAD DUP1 SWAP2 SUB SWAP1 REVERT JUMPDEST DUP1 PUSH1 0x1 PUSH1 0x0 DUP5 PUSH20 0xFFFFFFFFFFFFFFFFFFFFFFFFFFFFFFFFFFFFFFFF AND PUSH20 0xFFFFFFFFFFFFFFFFFFFFFFFFFFFFFFFFFFFFFFFF AND DUP2 MSTORE PUSH1 0x20 ADD SWAP1 DUP2 MSTORE PUSH1 0x20 ADD PUSH1 0x0 KECCAK256 PUSH1 0x0 PUSH2 0x100 EXP DUP2 SLOAD DUP2 PUSH1 0xFF MUL NOT AND SWAP1 DUP4 PUSH1 0xFF AND MUL OR SWAP1 SSTORE POP PUSH1 0x0 DUP1 DUP3 PUSH1 0xFF AND PUSH1 0xFF AND DUP2 MSTORE PUSH1 0x20 ADD SWAP1 DUP2 MSTORE PUSH1 0x20 ADD PUSH1 0x0 KECCAK256 PUSH1 0x0 DUP2 SLOAD DUP1 SWAP3 SWAP2 SWAP1 PUSH2 0x29A SWAP1 PUSH2 0x472 JUMP JUMPDEST SWAP2 SWAP1 POP SSTORE POP PUSH32 0x20681FE6BACFD367B61633FBC5978DEB3EC92FDE63194F4234BFC2797EF96867 DUP2 DUP4 PUSH1 0x40 MLOAD PUSH2 0x2D0 SWAP3 SWAP2 SWAP1 PUSH2 0x3EF JUMP JUMPDEST PUSH1 0x40 MLOAD DUP1 SWAP2 SUB SWAP1 LOG1 POP POP JUMP JUMPDEST PUSH1 0x0 DUP2 CALLDATALOAD SWAP1 POP PUSH2 0x2EB DUP2 PUSH2 0x564 JUMP JUMPDEST SWAP3 SWAP2 POP POP JUMP JUMPDEST PUSH1 0x0 DUP2 CALLDATALOAD SWAP1 POP PUSH2 0x300 DUP2 PUSH2 0x57B JUMP JUMPDEST SWAP3 SWAP2 POP POP JUMP JUMPDEST PUSH1 0x0 PUSH1 0x20 DUP3 DUP5 SUB SLT ISZERO PUSH2 0x31C JUMPI PUSH2 0x31B PUSH2 0x4EA JUMP JUMPDEST JUMPDEST PUSH1 0x0 PUSH2 0x32A DUP5 DUP3 DUP6 ADD PUSH2 0x2DC JUMP JUMPDEST SWAP2 POP POP SWAP3 SWAP2 POP POP JUMP JUMPDEST PUSH1 0x0 DUP1 PUSH1 0x40 DUP4 DUP6 SUB SLT ISZERO PUSH2 0x34A JUMPI PUSH2 0x349 PUSH2 0x4EA JUMP JUMPDEST JUMPDEST PUSH1 0x0 PUSH2 0x358 DUP6 DUP3 DUP7 ADD PUSH2 0x2DC JUMP JUMPDEST SWAP3 POP POP PUSH1 0x20 PUSH2 0x369 DUP6 DUP3 DUP7 ADD PUSH2 0x2F1 JUMP JUMPDEST SWAP2 POP POP SWAP3 POP SWAP3 SWAP1 POP JUMP JUMPDEST PUSH2 0x37C DUP2 PUSH2 0x429 JUMP JUMPDEST DUP3 MSTORE POP POP JUMP JUMPDEST PUSH1 0x0 PUSH2 0x38F PUSH1 0x5F DUP4 PUSH2 0x418 JUMP JUMPDEST SWAP2 POP PUSH2 0x39A DUP3 PUSH2 0x4EF JUMP JUMPDEST PUSH1 0x60 DUP3 ADD SWAP1 POP SWAP2 SWAP1 POP JUMP JUMPDEST PUSH2 0x3AE DUP2 PUSH2 0x465 JUMP JUMPDEST DUP3 MSTORE POP POP JUMP JUMPDEST PUSH1 0x0 PUSH1 0x20 DUP3 ADD SWAP1 POP DUP2 DUP2 SUB PUSH1 0x0 DUP4 ADD MSTORE PUSH2 0x3CD DUP2 PUSH2 0x382 JUMP JUMPDEST SWAP1 POP SWAP2 SWAP1 POP JUMP JUMPDEST PUSH1 0x0 PUSH1 0x20 DUP3 ADD SWAP1 POP PUSH2 0x3E9 PUSH1 0x0 DUP4 ADD DUP5 PUSH2 0x3A5 JUMP JUMPDEST SWAP3 SWAP2 POP POP JUMP JUMPDEST PUSH1 0x0 PUSH1 0x40 DUP3 ADD SWAP1 POP PUSH2 0x404 PUSH1 0x0 DUP4 ADD DUP6 PUSH2 0x3A5 JUMP JUMPDEST PUSH2 0x411 PUSH1 0x20 DUP4 ADD DUP5 PUSH2 0x373 JUMP JUMPDEST SWAP4 SWAP3 POP POP POP JUMP JUMPDEST PUSH1 0x0 DUP3 DUP3 MSTORE PUSH1 0x20 DUP3 ADD SWAP1 POP SWAP3 SWAP2 POP POP JUMP JUMPDEST PUSH1 0x0 PUSH2 0x434 DUP3 PUSH2 0x43B JUMP JUMPDEST SWAP1 POP SWAP2 SWAP1 POP JUMP JUMPDEST PUSH1 0x0 PUSH20 0xFFFFFFFFFFFFFFFFFFFFFFFFFFFFFFFFFFFFFFFF DUP3 AND SWAP1 POP SWAP2 SWAP1 POP JUMP JUMPDEST PUSH1 0x0 DUP2 SWAP1 POP SWAP2 SWAP1 POP JUMP JUMPDEST PUSH1 0x0 PUSH1 0xFF DUP3 AND SWAP1 POP SWAP2 SWAP1 POP JUMP JUMPDEST PUSH1 0x0 PUSH2 0x47D DUP3 PUSH2 0x45B JUMP JUMPDEST SWAP2 POP PUSH32 0xFFFFFFFFFFFFFFFFFFFFFFFFFFFFFFFFFFFFFFFFFFFFFFFFFFFFFFFFFFFFFFFF DUP3 EQ ISZERO PUSH2 0x4B0 JUMPI PUSH2 0x4AF PUSH2 0x4BB JUMP JUMPDEST JUMPDEST PUSH1 0x1 DUP3 ADD SWAP1 POP SWAP2 SWAP1 POP JUMP JUMPDEST PUSH32 0x4E487B7100000000000000000000000000000000000000000000000000000000 PUSH1 0x0 MSTORE PUSH1 0x11 PUSH1 0x4 MSTORE PUSH1 0x24 PUSH1 0x0 REVERT JUMPDEST PUSH1 0x0 DUP1 REVERT JUMPDEST PUSH32 0x496C206E756D65726F2064656C6C6120736861726420646F7665206527207374 PUSH1 0x0 DUP3 ADD MSTORE PUSH32 0x61746F206465706C6F7961746F206C6F20736D61727420636F6E747261637420 PUSH1 0x20 DUP3 ADD MSTORE PUSH32 0x646576652065737365726520636F6D707265736F207472612031206520332E00 PUSH1 0x40 DUP3 ADD MSTORE POP JUMP JUMPDEST PUSH2 0x56D DUP2 PUSH2 0x429 JUMP JUMPDEST DUP2 EQ PUSH2 0x578 JUMPI PUSH1 0x0 DUP1 REVERT JUMPDEST POP JUMP JUMPDEST PUSH2 0x584 DUP2 PUSH2 0x465 JUMP JUMPDEST DUP2 EQ PUSH2 0x58F JUMPI PUSH1 0x0 DUP1 REVERT JUMPDEST POP JUMP INVALID LOG2 PUSH5 0x6970667358 0x22 SLT KECCAK256 0xD5 SHR PUSH23 0x832E745471D9DDAE1C0CD2676806DF34422414DA2A456 SDIV CODESIZE 0x5E MULMOD SGT 0xB0 PUSH5 0x736F6C6343 STOP ADDMOD MOD STOP CALLER "
		},
		"gasEstimates": {
			"creation": {
				"codeDepositCost": "296000",
				"executionCost": "337",
				"totalCost": "296337"
			},
			"external": {
				"get_shard_where_contract(address)": "2883",
				"get_shard_where_deploy()": "7112",
				"register_contract(address,uint8)": "infinite"
			}
		},
		"methodIdentifiers": {
			"get_shard_where_contract(address)": "860c6f56",
			"get_shard_where_deploy()": "017e4981",
			"register_contract(address,uint8)": "eec4c95f"
		}
	},
	"abi": [
		{
			"anonymous": false,
			"inputs": [
				{
					"indexed": false,
					"internalType": "uint8",
					"name": "shard_number",
					"type": "uint8"
				},
				{
					"indexed": false,
					"internalType": "address",
					"name": "contract_adress",
					"type": "address"
				}
			],
			"name": "Contract_registered",
			"type": "event"
		},
		{
			"inputs": [
				{
					"internalType": "address",
					"name": "contract_adress",
					"type": "address"
				}
			],
			"name": "get_shard_where_contract",
			"outputs": [
				{
					"internalType": "uint8",
					"name": "shard_number",
					"type": "uint8"
				}
			],
			"stateMutability": "view",
			"type": "function"
		},
		{
			"inputs": [],
			"name": "get_shard_where_deploy",
			"outputs": [
				{
					"internalType": "uint8",
					"name": "shard_number",
					"type": "uint8"
				}
			],
			"stateMutability": "view",
			"type": "function"
		},
		{
			"inputs": [
				{
					"internalType": "address",
					"name": "contract_adress",
					"type": "address"
				},
				{
					"internalType": "uint8",
					"name": "shard_number",
					"type": "uint8"
				}
			],
			"name": "register_contract",
			"outputs": [],
			"stateMutability": "nonpayable",
			"type": "function"
		}
	]
}